:010000002AD5
:0100010013EB
:010002000BF2
:010003003FBD
:010004003EBD
:010005001DDD
:010006001EDB
:0100070031C7
:0100080025D2
:010009002DC9
:01000A001CD9
:01000B002BC9
:01000C001AD9
:01000D0026CC
:01000E002DC4
:01000F0004EC
:0100100028C7
:0100110033BB
:010012001FCE
:0100130025C7
:0100140022C9
:010015002DBD
:0100160036B3
:010017000FD9
:0100180015D2
:010019003FA7
:01001A0003E2
:01001B0020C4
:01001C003BA8
:01001D0007DB
:01001E0038A9
:01001F0012CE
:0100200031AE
:0100210000DE
:010022003BA2
:0100230004D8
:010024002BB0
:010025001FBB
:0100260039A0
:010027003D9B
:0100280027B0
:010029003A9C
:01002A003D98
:01002B002EA6
:01002C001FB4
:01002D002FA3
:01002E0001D0
:01002F003799
:0100300003CC
:0100310004CA
:0100320004C9
:010033002D9F
:0100340026A5
:010035000BBF
:010036001CAD
:010037001BAD
:01003800388F
:0100390009BD
:01003A000EB7
:01003B0006BE
:01003C00348F
:01003D0016AC
:01003E001CA5
:01003F00368A
:010040001AA5
:0100410007B7
:010042001E9F
:01004300318B
:01004400209B
:010045000BAF
:0100460014A5
:010047000AAE
:010048002592
:0100490013A3
:01004A003B7A
:01004B001A9A
:01004C00268D
:01004D00367C
:01004E001E93
:01004F000EA2
:01005000347B
:01005100139B
:010052002F7E
:01005300228A
:010054002685
:010055003872
:010056001693
:010057002B7D
:010058000B9C
:0100590002A4
:01005A00099C
:01005B001B89
:01005C002281
:01005D00069C
:01005E001D84
:01005F00019F
:010060000E91
:01006100306E
:010062001C81
:010063000F8D
:010064000497
:010065002A70
:010066001782
:010067002078
:010068000790
:010069000096
:01006A003E57
:01006B00395B
:01006C00167D
:01006D000191
:01006E002D64
:01006F000F81
:01007000236C
:010071002866
:010072000984
:010073000A82
:010074000883
:010075003B4F
:010076000C7D
:01007700097F
:010078003651
:010079003452
:01007A001D68
:01007B00265E
:01007C002E55
:01007D001F63
:01007E00245D
:01007F003B45
:01008000334C
:01008100037B
:010082001C61
:010083002557
:010084003F3C
:010085000476
:010086002A4F
:010087000771
:010088003542
:01008900086E
:01008A002D48
:01008B001262
:01008C00175C
:01008D001959
:01008E00165B
:01008F00046C
:010090003936
:010091000B63
:010092003A33
:010093002F3D
:010094003536
:010095001E4C
:010096002544
:010097003C2C
:010098002146
:010099002541
:01009A003134
:01009B002F35
:01009C003E25
:01009D00283A
:01009E001849
:01009F002D33
:0100A000322D
:0100A1000856
:0100A2000756
:0100A3003B21
:0100A4003922
:0100A5002139
:0100A6003326
:0100A7000850
:0100A8001740
:0100A9003422
:0100AA003025
:0100AB002E26
:0100AC001142
:0100AD00064C
:0100AE000051
:0100AF00351B
:0100B0001C33
:0100B100034B
:0100B2002924
:0100B3001933
:0100B4001635
:0100B5002723
:0100B6000A3F
:0100B7000D3B
:0100B8003413
:0100B9001E28
:0100BA002E17
:0100BB003F05
:0100BC003B08
:0100BD002A18
:0100BE00221F
:0100BF001E22
:0100C000340B
:0100C1000638
:0100C2000439
:0100C3001A22
:0100C4001922
:0100C5000931
:0100C6001D1C
:0100C7002A0E
:0100C8001522
:0100C9000C2A
:0100CA003104
:0100CB001420
:0100CC002C07
:0100CD000F23
:0100CE00131E
:0100CF002907
:0100D00035FA
:0100D1001915
:0100D2003EEF
:0100D3000E1E
:0100D400111A
:0100D5001F0B
:0100D6002207
:0100D7000226
:0100D8001710
:0100D90027FF
:0100DA003CE9
:0100DB001D07
:0100DC000E15
:0100DD002EF4
:0100DE0029F8
:0100DF00160A
:0100E0001F00
:0100E1000618
:0100E2003CE1
:0100E3000814
:0100E4000912
:0100E5000317
:0100E6000E0B
:0100E70036E2
:0100E8001700
:0100E90018FE
:0100EA001500
:0100EB000C08
:0100EC001003
:0100ED003ED4
:0100EE0039D8
:0100EF0028E8
:0100F0002DE2
:0100F10015F9
:0100F20022EB
:0100F30018F4
:0100F40010FB
:0100F5000EFC
:0100F60016F3
:0100F70026E2
:0100F80032D5
:0100F90008FE
:0100FA000203
:0100FB0011F3
:0100FC001DE6
:0100FD0039C9
:0100FE0016EB
:0100FF001EE2
:010100001CE2
:0101010010ED
:0101020016E6
:010103000FEC
:0101040031C9
:0101050019E0
:010106002ECA
:0101070033C4
:0101080005F1
:0101090020D5
:01010A0007ED
:01010B001FD4
:01010C0025CD
:01010D0019D8
:01010E0017D9
:01010F003AB5
:010110002AC4
:010111003FAE
:010112003DAF
:010113003FAC
:0101140039B1
:010115003CAD
:010116000DDB
:010117003EA9
:010118002DB9
:0101190009DC
:01011A0029BB
:01011B0024BF
:01011C0012D0
:01011D0016CB
:01011E0011CF
:01011F003DA2
:0101200014CA
:010121002CB1
:010122003BA1
:0101230037A4
:0101240037A3
:0101250011C8
:0101260027B1
:0101270029AE
:0101280008CE
:010129002CA9
:01012A002DA7
:01012B0013C0
:01012C0013BF
:01012D0029A8
:01012E0018B8
:01012F0028A7
:0101300016B8
:010131001FAE
:010132003696
:0101330009C2
:010134003694
:010135003099
:010136003098
:0101370014B3
:010138003195
:010139003194
:01013A0018AC
:01013B001DA6
:01013C0014AE
:01013D000BB6
:01013E0001BF
:01013F003B84
:010140002E90
:01014100229B
:0101420013A9
:0101430007B4
:0101440004B6
:010145003485
:010146001E9A
:010147002097
:0101480006B0
:0101490003B2
:01014A002F85
:01014B003281
:01014C0002B0
:01014D00367B
:01014E00218F
:01014F003877
:010150001896
:010151003D70
:010152003676
:0101530000AB
:010154002E7C
:010155003475
:010156002781
:010157002F78
:010158002482
:010159000A9B
:01015A00376D
:01015B00049F
:01015C000A98
:01015D00227F
:01015E000E92
:01015F00217E
:01016000118D
:010161003964
:010162000597
:010163000794
:01016400009A
:010165000990
:010166003E5A
:010167002176
:01016800286E
:010169002E67
:01016A00365E
:01016B00048F
:01016C001A78
:01016D000889
:01016E001D73
:01016F00355A
:010170001777
:01017100206D
:010172002567
:010173002B60
:010174000882
:010175000E7B
:01017600196F
:010177001770
:010178003056
:010179001A6B
:01017A003054
:01017B002261
:01017C001E64
:01017D002160
:01017E00225E
:01017F003649
:010180002757
:010181003A43
:010182003A42
:010183003F3C
:010184001367
:010185001A5F
:010186002C4C
:010187003344
:01018800175F
:010189003540
:01018A002A4A
:01018B001063
:01018C00046E
:01018D00264B
:01018E00323E
:01018F00244B
:010190003D31
:01019100115C
:010192002A42
:010193001358
:010194002E3C
:010195000762
:010196002E3A
:010197001552
:010198003B2B
:010199002A3B
:01019A00293B
:01019B003E25
:01019C00372B
:01019D001150
:01019E00223E
:01019F00025D
:0101A0001747
:0101A1002D30
:0101A2001943
:0101A3003823
:0101A4002634
:0101A5002D2C
:0101A6001345
:0101A7001E39
:0101A8003A1C
:0101A9002035
:0101AA003222
:0101AB001E35
:0101AC00262C
:0101AD001A37
:0101AE000848
:0101AF000F40
:0101B000311D
:0101B1001835
:0101B2002D1F
:0101B3003F0C
:0101B4000743
:0101B5002722
:0101B6000F39
:0101B7003017
:0101B8002F17
:0101B9000144
:0101BA000A3A
:0101BB002023
:0101BC003D05
:0101BD003A07
:0101BE003907
:0101BF000D32
:0101C0000935
:0101C1001A23
:0101C2000B31
:0101C3003902
:0101C4001F1B
:0101C5000C2D
:0101C600191F
:0101C7002B0C
:0101C80038FE
:0101C90036FF
:0101CA0036FE
:0101CB0036FD
:0101CC002909
:0101CD002A07
:0101CE000828
:0101CF003DF2
:0101D0001B13
:0101D1003DF0
:0101D2001715
:0101D30037F4
:0101D4003BEF
:0101D50035F4
:0101D6002404
:0101D70030F7
:0101D80033F3
:0101D90029FC
:0101DA003CE8
:0101DB001013
:0101DC00180A
:0101DD0023FE
:0101DE000D13
:0101DF0020FF
:0101E00025F9
:0101E1000914
:0101E20037E5
:0101E3000A11
:0101E40028F2
:0101E5003DDC
:0101E60026F2
:0101E70021F6
:0101E8003BDB
:0101E9000114
:0101EA0020F4
:0101EB0021F2
:0101EC0036DC
:0101ED001FF2
:0101EE001AF6
:0101EF0037D8
:0101F00023EB
:0101F1000805
:0101F20010FC
:0101F3000407
:0101F40032D8
:0101F5003BCE
:0101F60014F4
:0101F7001EE9
:0101F8002ED8
:0101F90028DD
:0101FA0027DD
:0101FB0017EC
:0101FC0030D2
:0101FD0015EC
:0101FE0006FA
:0101FF0002FD
:0102000013EA
:0102010002FA
:0102020006F5
:0102030034C6
:0102040027D2
:0102050008F0
:0102060023D4
:0102070008EE
:010208002ACB
:0102090007ED
:01020A0016DD
:01020B0026CC
:01020C0034BD
:01020D0000F0
:01020E0025CA
:01020F0004EA
:0102100031BC
:0102110000EC
:010212003FAC
:010213002CBE
:0102140014D5
:010215003FA9
:0102160008DF
:0102170000E6
:010218000ADB
:0102190007DD
:01021A0032B1
:01021B003CA6
:01021C002DB4
:01021D0019C7
:01021E000DD2
:01021F003CA2
:010220003BA2
:010221000CD0
:0102220020BB
:010223003E9C
:0102240006D3
:0102250037A1
:01022600389F
:0102270028AE
:010228002CA9
:0102290011C3
:01022A0000D3
:01022B000DC5
:01022C000AC7
:01022D0017B9
:01022E0012BD
:01022F002CA2
:010230002DA0
:010231002E9E
:010232000DBE
:010233003991
:0102340009C0
:010235000ABE
:01023600289F
:0102370021A5
:010238002E97
:010239000EB6
:01023A0005BE
:01023B0008BA
:01023C00378A
:01023D00358B
:01023E000AB5
:01023F0015A9
:0102400005B8
:01024100308C
:010242002C8F
:01024300308A
:010244002C8D
:0102450010A8
:010246000CAB
:010247000AAC
:010248002B8A
:01024900278D
:01024A0007AC
:01024B001E94
:01024C00228F
:01024D002A86
:01024E0008A7
:01024F003777
:010250003F6E
:010251001A92
:01025200218A
:010253003377
:010254003A6F
:010255002484
:010256001B8C
:0102570006A0
:0102580002A3
:01025900059F
:01025A000A99
:01025B0002A0
:01025C00376A
:01025D00316F
:01025E00247B
:01025F001589
:010260001984
:010261003666
:010262001388
:010263001387
:010264000099
:010265001D7B
:01026600088F
:010267003561
:010268000E87
:010269001183
:01026A001380
:01026B002270
:01026C00236E
:01026D00038D
:01026E00305F
:01026F002E60
:010270000F7E
:010271000C80
:010272002467
:010273002169
:010274000D7C
:010275001474
:01027600097E
:01027700394D
:010278002E57
:010279003351
:01027A00265D
:01027B003250
:01027C00136E
:01027D001769
:01027E00037C
:01027F00047A
:010280001F5E
:010281002656
:010282003C3F
:010283002E4C
:010284002C4D
:010285002454
:010286001364
:010287003244
:010288003D38
:01028900165E
:01028A000B68
:01028B002151
:01028C00343D
:01028D002848
:01028E00323D
:01028F001856
:010290000667
:010291000C60
:010292003E2D
:010293000B5F
:010294002B3E
:010295002444
:010296001B4C
:010297000165
:010298001A4B
:010299002242
:01029A00045F
:01029B002042
:01029C00342D
:01029D002D33
:01029E00114E
:01029F002B33
:0102A000005D
:0102A1000755
:0102A2000F4C
:0102A3000951
:0102A4001742
:0102A5002E2A
:0102A6001641
:0102A700084E
:0102A8002035
:0102A9003F15
:0102AA00173C
:0102AB002131
:0102AC003F12
:0102AD00212F
:0102AE00351A
:0102AF003E10
:0102B0000A43
:0102B100212B
:0102B2001635
:0102B3003911
:0102B4003D0C
:0102B5001A2E
:0102B600390E
:0102B700271F
:0102B8002E17
:0102B900182C
:0102BA000A39
:0102BB00152D
:0102BC00033E
:0102BD003D03
:0102BE00330C
:0102BF00112D
:0102C000221B
:0102C1002319
:0102C2003605
:0102C3002C0E
:0102C4002910
:0102C5000236
:0102C60039FE
:0102C7003FF7
:0102C8002015
:0102C9001420
:0102CA002013
:0102CB002C06
:0102CC002B06
:0102CD0038F8
:0102CE00210E
:0102CF002608
:0102D0000429
:0102D1001517
:0102D2001417
:0102D30034F6
:0102D4002900
:0102D5003FE9
:0102D6000A1D
:0102D70031F5
:0102D8001213
:0102D9001E06
:0102DA002003
:0102DB00180A
:0102DC0026FB
:0102DD000D13
:0102DE00140B
:0102DF003EE0
:0102E0002EEF
:0102E100001C
:0102E2001704
:0102E30020FA
:0102E4000A0F
:0102E5002AEE
:0102E60023F4
:0102E7001FF7
:0102E80023F2
:0102E9001DF7
:0102EA000E05
:0102EB000909
:0102EC0020F1
:0102ED0033DD
:0102EE0020EF
:0102EF001AF4
:0102F0001DF0
:0102F1002EDE
:0102F20022E9
:0102F3000307
:0102F40019F0
:0102F5001BED
:0102F60037D0
:0102F70029DD
:0102F8002ED7
:0102F9003CC8
:0102FA002FD4
:0102FB0031D1
:0102FC0007FA
:0102FD0025DB
:0102FE001AE5
:0102FF003BC3
:010300000DEF
:0103010027D4
:010302001AE0
:010303002CCD
:0103040022D6
:010305002CCB
:010306003CBA
:0103070031C4
:0103080012E2
:0103090022D1
:01030A0009E9
:01030B0001F0
:01030C0006EA
:01030D001CD3
:01030E0017D7
:01030F0022CB
:010310003BB1
:0103110035B6
:0103120025C5
:010313002EBB
:0103140033B5
:0103150036B1
:0103160027BF
:0103170017CE
:010318002BB9
:0103190039AA
:01031A001FC3
:01031B0029B8
:01031C000CD4
:01031D000FD0
:01031E002DB1
:01031F000FCE
:0103200025B7
:0103210020BB
:0103220028B2
:0103230019C0
:0103240019BF
:0103250011C6
:010326002DA9
:010327003C99
:0103280015BF
:010329002BA8
:01032A00389A
:01032B001AB7
:01032C0006CA
:01032D003996
:01032E00319D
:01032F0004C9
:0103300008C4
:01033100319A
:0103320008C2
:010333003E8B
:0103340021A7
:0103350017B0
:0103360003C3
:0103370002C3
:010338002F95
:010339001FA4
:01033A0017AB
:01033B0007BA
:01033C001FA1
:01033D0012AD
:01033E003688
:01033F0002BB
:01034000209C
:010341003289
:010342002991
:010343002E8B
:0103440017A1
:010345002196
:010346001E98
:0103470008AD
:01034800159F
:010349003F74
:01034A0003AF
:01034B001E93
:01034C0006AA
:01034D00139C
:01034E00149A
:01034F000AA3
:010350002B81
:010351002C7F
:01035200307A
:010353003A6F
:010354000A9E
:01035500089F
:010356003373
:010357003273
:010358002381
:01035900346F
:01035A0000A2
:01035B00138E
:01035C002779
:01035D00356A
:01035E001D81
:01035F001D80
:010360002577
:010361002774
:010362000496
:010363003366
:010364000593
:010365002473
:010366003660
:010367001E77
:01036800385C
:01036900276C
:01036A00137F
:01036B00157C
:01036C002F61
:01036D00315E
:01036E002866
:01036F003B52
:010370000B81
:010371002C5F
:010372000882
:010373002A5F
:010374001573
:010375000F78
:010376001E68
:010377002F56
:010378003054
:010379000182
:01037A000181
:01037B00156C
:01037C000C74
:01037D00017E
:01037E000975
:01037F002756
:010380001B61
:010381000576
:010382002258
:010383003049
:01038400096F
:010385002156
:010386001E58
:010387000570
:01038800284C
:010389002B48
:01038A001062
:01038B00066B
:01038C002947
:01038D001D52
:01038E001658
:01038F00204D
:01039000125A
:010391003A31
:010392003634
:010393001653
:010394002C3C
:010395003532
:010396002D39
:010397000263
:010398003C28
:010399000E55
:01039A00035F
:01039B00164B
:01039C00352B
:01039D003E21
:01039E00233B
:01039F002835
:0103A0002C30
:0103A1001546
:0103A2002A30
:0103A3002E2B
:0103A4000C4C
:0103A5002235
:0103A6003E18
:0103A7000550
:0103A8000B49
:0103A9001340
:0103AA002131
:0103AB003918
:0103AC001D33
:0103AD001D32
:0103AE000549
:0103AF00004D
:0103B0002725
:0103B1001E2D
:0103B2002228
:0103B3000742
:0103B4003612
:0103B5000146
:0103B600073F
:0103B7003213
:0103B8003113
:0103B9002320
:0103BA002E14
:0103BB001E23
:0103BC000C34
:0103BD00340B
:0103BE00122C
:0103BF002914
:0103C0003FFD
:0103C1001F1C
:0103C2000535
:0103C3003405
:0103C4003701
:0103C5002D0A
:0103C6003DF9
:0103C700270E
:0103C8000B29
:0103C900260D
:0103CA002E04
:0103CB0036FB
:0103CC0031FF
:0103CD003AF5
:0103CE001F0F
:0103CF00230A
:0103D00032FA
:0103D100200B
:0103D20036F4
:0103D3000425
:0103D4001B0D
:0103D5003DEA
:0103D6001412
:0103D700071E
:0103D80036EE
:0103D900071C
:0103DA0029F9
:0103DB0033EE
:0103DC0038E8
:0103DD002AF5
:0103DE003FDF
:0103DF0030ED
:0103E0003CE0
:0103E1002BF0
:0103E2001A00
:0103E3000A0F
:0103E40030E8
:0103E5000B0C
:0103E6000313
:0103E70032E3
:0103E8000F05
:0103E9002EE5
:0103EA0021F1
:0103EB00060B
:0103EC000F01
:0103ED003CD3
:0103EE000905
:0103EF0012FB
:0103F0001BF1
:0103F1000803
:0103F20017F3
:0103F30016F3
:0103F4000305
:0103F5002FD8
:0103F6003EC8
:0103F70009FC
:0103F80032D2
:0103F90004FF
:0103FA001CE6
:0103FB001FE2
:0103FC0021DF
:0103FD002AD5
:0103FE0012EC
:0103FF0008F5
:00000001FF
